{
    "_format": "hh-sol-artifact-1",
    "contractName": "Identity",
    "sourceName": "contracts/Identity.sol",
    "abi": [
        {
            "anonymous": false,
            "inputs": [
                {
                    "indexed": true,
                    "internalType": "address",
                    "name": "sender",
                    "type": "address"
                },
                {
                    "indexed": false,
                    "internalType": "string",
                    "name": "message",
                    "type": "string"
                }
            ],
            "name": "infoAdded",
            "type": "event"
        },
        {
            "inputs": [
                {
                    "internalType": "string",
                    "name": "_name",
                    "type": "string"
                },
                {
                    "internalType": "string",
                    "name": "_hashOfCovid",
                    "type": "string"
                },
                {
                    "internalType": "string",
                    "name": "_hashOfMarkSheet",
                    "type": "string"
                }
            ],
            "name": "addUserInfo",
            "outputs": [],
            "stateMutability": "nonpayable",
            "type": "function"
        },
        {
            "inputs": [
                {
                    "internalType": "address",
                    "name": "_addr",
                    "type": "address"
                }
            ],
            "name": "getUser",
            "outputs": [
                {
                    "components": [
                        {
                            "internalType": "string",
                            "name": "name",
                            "type": "string"
                        },
                        {
                            "internalType": "string",
                            "name": "hashOfCovid",
                            "type": "string"
                        },
                        {
                            "internalType": "string",
                            "name": "hashOfMarkSheet",
                            "type": "string"
                        }
                    ],
                    "internalType": "struct Identity.UserInfo",
                    "name": "",
                    "type": "tuple"
                }
            ],
            "stateMutability": "view",
            "type": "function"
        }
    ],
    "bytecode": "0x608060405234801561001057600080fd5b50610962806100206000396000f3fe608060405234801561001057600080fd5b50600436106100365760003560e01c806357d3ec191461003b5780636f77926b14610057575b600080fd5b61005560048036038101906100509190610590565b610087565b005b610071600480360381019061006c9190610567565b610217565b60405161007e9190610701565b60405180910390f35b60006040518060600160405280858152602001848152602001838152509050600081908060018154018082558091505060019003906000526020600020906003020160009091909190915060008201518160000190805190602001906100ee929190610426565b50602082015181600101908051906020019061010b929190610426565b506040820151816002019080519060200190610128929190610426565b50505080600160003373ffffffffffffffffffffffffffffffffffffffff1673ffffffffffffffffffffffffffffffffffffffff1681526020019081526020016000206000820151816000019080519060200190610187929190610426565b5060208201518160010190805190602001906101a4929190610426565b5060408201518160020190805190602001906101c1929190610426565b509050503373ffffffffffffffffffffffffffffffffffffffff167f529fe5007ce470f47d89c44037b9759ea14f9ff011b9df8f474f3371d1d9b2a8604051610209906106e1565b60405180910390a250505050565b61021f6104ac565b600160008373ffffffffffffffffffffffffffffffffffffffff1673ffffffffffffffffffffffffffffffffffffffff1681526020019081526020016000206040518060600160405290816000820180546102799061081a565b80601f01602080910402602001604051908101604052809291908181526020018280546102a59061081a565b80156102f25780601f106102c7576101008083540402835291602001916102f2565b820191906000526020600020905b8154815290600101906020018083116102d557829003601f168201915b5050505050815260200160018201805461030b9061081a565b80601f01602080910402602001604051908101604052809291908181526020018280546103379061081a565b80156103845780601f1061035957610100808354040283529160200191610384565b820191906000526020600020905b81548152906001019060200180831161036757829003601f168201915b5050505050815260200160028201805461039d9061081a565b80601f01602080910402602001604051908101604052809291908181526020018280546103c99061081a565b80156104165780601f106103eb57610100808354040283529160200191610416565b820191906000526020600020905b8154815290600101906020018083116103f957829003601f168201915b5050505050815250509050919050565b8280546104329061081a565b90600052602060002090601f016020900481019282610454576000855561049b565b82601f1061046d57805160ff191683800117855561049b565b8280016001018555821561049b579182015b8281111561049a57825182559160200191906001019061047f565b5b5090506104a891906104cd565b5090565b60405180606001604052806060815260200160608152602001606081525090565b5b808211156104e65760008160009055506001016104ce565b5090565b60006104fd6104f884610748565b610723565b90508281526020810184848401111561051557600080fd5b6105208482856107d8565b509392505050565b60008135905061053781610915565b92915050565b600082601f83011261054e57600080fd5b813561055e8482602086016104ea565b91505092915050565b60006020828403121561057957600080fd5b600061058784828501610528565b91505092915050565b6000806000606084860312156105a557600080fd5b600084013567ffffffffffffffff8111156105bf57600080fd5b6105cb8682870161053d565b935050602084013567ffffffffffffffff8111156105e857600080fd5b6105f48682870161053d565b925050604084013567ffffffffffffffff81111561061157600080fd5b61061d8682870161053d565b9150509250925092565b600061063282610779565b61063c8185610784565b935061064c8185602086016107e7565b610655816108db565b840191505092915050565b600061066d601d83610795565b9150610678826108ec565b602082019050919050565b600060608301600083015184820360008601526106a08282610627565b915050602083015184820360208601526106ba8282610627565b915050604083015184820360408601526106d48282610627565b9150508091505092915050565b600060208201905081810360008301526106fa81610660565b9050919050565b6000602082019050818103600083015261071b8184610683565b905092915050565b600061072d61073e565b9050610739828261084c565b919050565b6000604051905090565b600067ffffffffffffffff821115610763576107626108ac565b5b61076c826108db565b9050602081019050919050565b600081519050919050565b600082825260208201905092915050565b600082825260208201905092915050565b60006107b1826107b8565b9050919050565b600073ffffffffffffffffffffffffffffffffffffffff82169050919050565b82818337600083830152505050565b60005b838110156108055780820151818401526020810190506107ea565b83811115610814576000848401525b50505050565b6000600282049050600182168061083257607f821691505b602082108114156108465761084561087d565b5b50919050565b610855826108db565b810181811067ffffffffffffffff82111715610874576108736108ac565b5b80604052505050565b7f4e487b7100000000000000000000000000000000000000000000000000000000600052602260045260246000fd5b7f4e487b7100000000000000000000000000000000000000000000000000000000600052604160045260246000fd5b6000601f19601f8301169050919050565b7f416464656420496e666f726d6174696f6e2053756365737366756c6c79000000600082015250565b61091e816107a6565b811461092957600080fd5b5056fea2646970667358221220964361b6bb73d09d1cbdaaf36a9e75a9d762898244fc71b9a9c1d585cad39a1464736f6c63430008040033",
    "linkReferences": {},
    "deployedLinkReferences": {}
}